{"abi":[{"type":"function","name":"logAccess","inputs":[{"name":"_username","type":"string","internalType":"string"},{"name":"_fileId","type":"string","internalType":"string"},{"name":"_action","type":"string","internalType":"string"},{"name":"_granted","type":"bool","internalType":"bool"},{"name":"_reason","type":"string","internalType":"string"}],"outputs":[],"stateMutability":"nonpayable"},{"type":"event","name":"AccessLogged","inputs":[{"name":"username","type":"string","indexed":false,"internalType":"string"},{"name":"fileId","type":"string","indexed":false,"internalType":"string"},{"name":"action","type":"string","indexed":false,"internalType":"string"},{"name":"granted","type":"bool","indexed":false,"internalType":"bool"},{"name":"reason","type":"string","indexed":false,"internalType":"string"},{"name":"timestamp","type":"uint256","indexed":false,"internalType":"uint256"}],"anonymous":false}],"bytecode":{"object":"0x6080604052348015600e575f5ffd5b506104328061001c5f395ff3fe608060405234801561000f575f5ffd5b5060043610610029575f3560e01c8063090343b81461002d575b5f5ffd5b61004760048036038101906100429190610213565b610049565b005b7f7cc9ce2a5f9c8443dc0940016ce977e3afe8427404acdec3bbd9661e417f91c185858585854260405161008296959493929190610381565b60405180910390a15050505050565b5f604051905090565b5f5ffd5b5f5ffd5b5f5ffd5b5f5ffd5b5f601f19601f8301169050919050565b7f4e487b71000000000000000000000000000000000000000000000000000000005f52604160045260245ffd5b6100f0826100aa565b810181811067ffffffffffffffff8211171561010f5761010e6100ba565b5b80604052505050565b5f610121610091565b905061012d82826100e7565b919050565b5f67ffffffffffffffff82111561014c5761014b6100ba565b5b610155826100aa565b9050602081019050919050565b828183375f83830152505050565b5f61018261017d84610132565b610118565b90508281526020810184848401111561019e5761019d6100a6565b5b6101a9848285610162565b509392505050565b5f82601f8301126101c5576101c46100a2565b5b81356101d5848260208601610170565b91505092915050565b5f8115159050919050565b6101f2816101de565b81146101fc575f5ffd5b50565b5f8135905061020d816101e9565b92915050565b5f5f5f5f5f60a0868803121561022c5761022b61009a565b5b5f86013567ffffffffffffffff8111156102495761024861009e565b5b610255888289016101b1565b955050602086013567ffffffffffffffff8111156102765761027561009e565b5b610282888289016101b1565b945050604086013567ffffffffffffffff8111156102a3576102a261009e565b5b6102af888289016101b1565b93505060606102c0888289016101ff565b925050608086013567ffffffffffffffff8111156102e1576102e061009e565b5b6102ed888289016101b1565b9150509295509295909350565b5f81519050919050565b5f82825260208201905092915050565b8281835e5f83830152505050565b5f61032c826102fa565b6103368185610304565b9350610346818560208601610314565b61034f816100aa565b840191505092915050565b610363816101de565b82525050565b5f819050919050565b61037b81610369565b82525050565b5f60c0820190508181035f8301526103998189610322565b905081810360208301526103ad8188610322565b905081810360408301526103c18187610322565b90506103d0606083018661035a565b81810360808301526103e28185610322565b90506103f160a0830184610372565b97965050505050505056fea26469706673582212207bdf1d5dbe1ee5d922942ec86d1bb42b525b56826a4bc8a85ed3fce43350a6dd64736f6c63430008210033","linkReferences":{}},"methodIdentifiers":{"logAccess(string,string,string,bool,string)":"090343b8"},"id":0}